:100000000C9434000C94A3020C9446000C9446000B
:100010000C9446000C9446000C9446000C94460048
:100020000C9446000C9446000C9446000C94460038
:100030000C9446000C9446000C9446000C94460028
:100040000C9446000C9446000C9446000C94460018
:100050000C9446000C9446000C9446000C94460008
:100060000C9446000C94460011241FBECFEFD8E03C
:10007000DEBFCDBF21E0A0E0B1E001C01D92A930FC
:10008000B207E1F70E9403030C94C4050C9400002E
:10009000CF93DF93CDB7DEB760970FB6F894DEBF8E
:1000A0000FBECDBF988B8F8777C080E090E0A0E82F
:1000B000BFE389839A83AB83BC8320E030E04AE7C7
:1000C00055E469817A818B819C810E945705DC010E
:1000D000CB018D839E83AF83B88720E030E040E87A
:1000E0005FE36D817E818F8198850E94F203882372
:1000F0002CF481E090E09A8789873FC020E03FEFB1
:100100004FE757E46D817E818F8198850E9452056B
:1001100018164CF520E030E040E251E469817A8124
:100120008B819C810E945705DC01CB01BC01CD0174
:100130000E947004DC01CB019A8789870FC080E997
:1001400091E09C878B878B859C850197F1F79C8735
:100150008B8789859A8501979A87898789859A856A
:10016000892B69F714C06D817E818F8198850E94EB
:100170007004DC01CB019A87898789859A859E87DF
:100180008D878D859E850197F1F79E878D878F8559
:1001900098890197988B8F878F85988918161906EB
:1001A0000CF483CF000060960FB6F894DEBF0FBE4C
:1001B000CDBFDF91CF910895CF93DF93CDB7DEB759
:1001C0002C970FB6F894DEBF0FBECDBF6D837E8334
:1001D0008F83988729873A874B875C872D813E815B
:1001E0004F81588569857A858B859C850E94570546
:1001F000DC01CB0120E030E04AE754E4BC01CD0152
:100200000E94F703DC01CB01BC01CD010E9469040F
:10021000DC01CB019C838B831A82198253C08D81B0
:100220009E81AF81B8859C01AD01BC01CD010E94CA
:100230008603DC01CB019C01AD0160E070E08AE740
:1002400094E40E94F703DC01CB01BC01CD010E94C4
:100250006904DC01CB010E94480085E290E025E2C0
:1002600030E0F90120812061FC0120838D819E8195
:10027000AF81B8859C01AD01BC01CD010E94860310
:10028000DC01CB019C01AD0160E070E08AE794E401
:100290000E94F703DC01CB01BC01CD010E9469047F
:1002A000DC01CB010E94480085E290E025E230E0CD
:1002B000F90120812F7EFC01208389819A8101969A
:1002C0009A83898329813A818B819C8128173907F8
:1002D0000CF4A5CF00002C960FB6F894DEBF0FBE2D
:1002E000CDBFDF91CF910895CF93DF93CDB7DEB728
:1002F000A0970FB6F894DEBF0FBECDBF85E290E0A9
:1003000025E230E0F90120812062FC01208380E0B9
:1003100090E0A0E2B1E489839A83AB83BC832BEAAB
:100320003AEA4AEA50E469817A818B819C810E9491
:100330005705DC01CB018D839E83AF83B88720E016
:1003400030E040E850E469817A818B819C810E9491
:100350005705DC01CB0189879A87AB87BC8720E0F2
:1003600030E040E85FE36D817E818F8198850E9457
:10037000F20388231CF481E08D87B2C020E03FEFB8
:100380004FE757E469857A858B859C850E945205E5
:1003900018160CF07BC020E030E04AE754E4698195
:1003A0007A818B819C810E94F703DC01CB018E87CF
:1003B0009F87A88BB98B20E030E04AE755E46E8533
:1003C0007F85888999890E945705DC01CB018A8B3A
:1003D0009B8BAC8BBD8B20E030E040E85FE36A890B
:1003E0007B898C899D890E94F20388232CF481E00B
:1003F00090E09F8B8E8B3FC020E03FEF4FE757E4AC
:100400006A897B898C899D890E94520518164CF552
:1004100020E030E040E251E46E857F85888999894B
:100420000E945705DC01CB01BC01CD010E94700484
:10043000DC01CB019F8B8E8B0FC080E991E0998FFF
:10044000888F888D998D0197F1F7998F888F8E8984
:100450009F8901979F8B8E8B8E899F89892B69F746
:100460003FC06A897B898C899D890E947004DC0168
:10047000CB019F8B8E8B8E899F899B8F8A8F8A8DD4
:100480009B8D0197F1F79B8F8A8F2AC020E030E087
:100490004FE753E46D817E818F8198850E945205DC
:1004A0001816ACF469857A858B859C850E9470044A
:1004B000DC01CB019D8F8C8F8C8D9D8D9F8F8E8FBE
:1004C0008E8D9F8D0197F1F79F8F8E8F0FC06D815D
:1004D0007E818F8198850E947004DC01CB018D871D
:1004E0008D8588A388A18A95F1F788A385E290E09D
:1004F00025E230E0F90120812F7DFC0120830000FE
:10050000A0960FB6F894DEBF0FBECDBFDF91CF919E
:100510000895CF93DF93CDB7DEB784E290E024E275
:1005200030E0F90120812062FC0120838AE290E022
:100530002AE230E0F90120812B7FFC0120830000BA
:10054000DF91CF9108951F920F9200905F000F925C
:1005500011242F933F934F935F936F937F938F93C8
:100560009F93EF93FF93CF93DF93CDB7DEB7909137
:10057000080181E08927882369F081E890E021E87B
:1005800030E0F90120812160FC01208381E080932B
:10059000080126C081E890E0FC01108284E890E028
:1005A000FC01808191819C0140E050E060E070E0BE
:1005B000CB0120930001309301014093020150933D
:1005C00003016093040170930501809306019093E9
:1005D000070184E890E0FC0111821082109208016A
:1005E0000000DF91CF91FF91EF919F918F917F91CB
:1005F0006F915F914F913F912F910F9000925F000B
:100600000F901F901895AF92BF92CF92DF92EF920A
:10061000FF920F931F93CF93DF9300D000D0CDB7FD
:10062000DEB719821A821B821C8284E290E024E2E7
:1006300030E0F90120812061FC0120830E948902C1
:100640008DE390E02DE330E0F90120812160FC0191
:10065000208389E690E029E630E0F90120812160DD
:10066000FC01208384E890E0FC01118210827894E0
:100670000E947401A0900001B0900101C09002019D
:10068000D0900301E0900401F09005010091060173
:10069000109107012A2D3B2D4C2D5D2D6E2D7F2DA8
:1006A000802F912F0E949F04DC01CB0120E03AEEC5
:1006B00044E856E4BC01CD010E945705DC01CB01A2
:1006C00020E034E244E75BE4BC01CD010E94F70383
:1006D000DC01CB0189839A83AB83BC8320E030E0CB
:1006E00040EF51E469817A818B819C810E94F20301
:1006F000882354F420E030E040EA51E460E070E008
:1007000088E492E40E94DC00B3CF5058BB27AA27AC
:100710000E949D030C9418050E940A0538F00E945F
:10072000110520F039F49F3F19F426F40C940705C5
:100730000EF4E095E7FB0C940105E92F0E942905D2
:1007400058F3BA17620773078407950720F079F406
:10075000A6F50C944B050EF4E0950B2EBA2FA02DA8
:100760000B01B90190010C01CA01A0011124FF275E
:10077000591B99F0593F50F4503E68F11A16F04059
:10078000A22F232F342F4427585FF3CF4695379558
:100790002795A795F0405395C9F77EF41F16BA0B1D
:1007A000620B730B840BBAF09150A1F0FF0FBB1FCB
:1007B000661F771F881FC2F70EC0BA0F621F731F14
:1007C000841F48F4879577956795B795F7959E3F71
:1007D00008F0B0CF9395880F08F09927EE0F979502
:1007E000879508950E94DD0408F481E008950E9431
:1007F0000B040C9418050E94110558F00E940A057C
:1008000040F029F45F3F29F00C94010551110C943C
:100810004C050C9407050E94290568F39923B1F350
:10082000552391F3951B550BBB27AA276217730716
:10083000840738F09F5F5F4F220F331F441FAA1FAA
:10084000A9F335D00E2E3AF0E0E832D09150504066
:10085000E695001CCAF72BD0FE2F29D0660F771F14
:10086000881FBB1F261737074807AB07B0E809F0FA
:10087000BB0B802DBF01FF2793585F4F3AF09E3F7F
:10088000510578F00C9401050C944C055F3FE4F39E
:10089000983ED4F3869577956795B795F7959F5FC2
:1008A000C9F7880F911D9695879597F90895E1E00E
:1008B000660F771F881FBB1F621773078407BA076D
:1008C00020F0621B730B840BBA0BEE1F88F7E095C8
:1008D00008950E9470046894B1110C944C05089519
:1008E0000E94310588F09F5798F0B92F9927B7518A
:1008F000B0F0E1F0660F771F881F991F1AF0BA95C4
:10090000C9F714C0B13091F00E944B05B1E00895D1
:100910000C944B05672F782F8827B85F39F0B93FC3
:10092000CCF3869577956795B395D9F73EF4909576
:100930008095709561957F4F8F4F9F4F0895E894F4
:10094000F92F96EBFF2381F0121613061406440BC1
:100950009395F69587957795679557954040FF2332
:10096000B9F71BC099270895882351F49850D2F7FE
:10097000872B762F652F542F432F322F20E0B1F392
:10098000121613061406440B88233AF09A95440F66
:10099000551F661F771F881FCAF755234AF4440F57
:1009A000551F11F460FF04C06F5F7F4F8F4F9F4F43
:1009B000880F9695879597F90895990F0008550F18
:1009C000AA0BE0E8FEEF16161706E807F907C0F0D5
:1009D00012161306E407F50798F0621B730B840BDD
:1009E000950B39F40A2661F0232B242B252B21F4B7
:1009F00008950A2609F4A140A6958FEF811D811D57
:100A0000089597F99F6780E870E060E008959FEF90
:100A100080EC089500240A94161617061806090695
:100A2000089500240A941216130614060506089564
:100A3000092E0394000C11F4882352F0BB0F40F4EC
:100A4000BF2B11F460FF04C06F5F7F4F8F4F9F4F2C
:100A5000089557FD9058440F551F59F05F3F71F0AE
:100A60004795880F97FB991F61F09F3F79F0879515
:100A70000895121613061406551FF2CF4695F1DF9E
:100A800008C0161617061806991FF1CF869571052E
:100A9000610508940895E894BB2766277727CB0162
:100AA00097F908950E94DD0408F48FEF08950E94DD
:100AB0006A050C9418050E940A0538F00E94110579
:100AC00020F0952311F00C9401050C9407051124D6
:100AD0000C944C050E94290570F3959FC1F3950F66
:100AE00050E0551F629FF001729FBB27F00DB11DB2
:100AF000639FAA27F00DB11DAA1F649F6627B00D42
:100B0000A11D661F829F2227B00DA11D621F739F2A
:100B1000B00DA11D621F839FA00D611D221F749F38
:100B20003327A00D611D231F849F600D211D822F7F
:100B3000762F6A2F11249F5750409AF0F1F08823A6
:100B40004AF0EE0FFF1FBB1F661F771F881F9150D3
:100B50005040A9F79E3F510580F00C9401050C947C
:100B60004C055F3FE4F3983ED4F3869577956795FF
:100B7000B795F795E7959F5FC1F7FE2B880F911DFD
:0C0B80009695879597F90895F894FFCF9B
:00000001FF
